:020000023000CC
:10E000000D947DF10D94A6F10D94A6F10D94A6F159
:10E010000D94A6F10D94A6F10D94A6F10D94A6F120
:10E020000D94A6F10D94A6F10D94A6F10D94A6F110
:10E030000D94A6F10D94A6F10D94A6F10D94A6F100
:10E040000D94A6F10D94A6F10D94A6F10D94A6F1F0
:10E050000D94A6F10D94A6F10D94A6F10D94A6F1E0
:10E060000D94A6F10D94A6F10D94A6F10D94A6F1D0
:10E070000D94A6F10D94A6F10D94A6F10D94A6F1C0
:10E080000D94A6F10D94A6F10D94A6F10D94A6F1B0
:10E090000D94A6F10D94A6F10D94A6F10D94A6F1A0
:10E0A0000D94A6F10D94A6F10D94A6F10D94A6F190
:10E0B0000D94A6F10D94A6F10D94A6F10D94A6F180
:10E0C0000D94A6F10D94A6F10D94A6F12A00593DE8
:10E0D000506F727420626C696E6B00563D73686F8E
:10E0E0007720696E746572727570742056656374FA
:10E0F0006F727300523D44756D702052414D005156
:10E100003D51756974004C3D4C69737420492F4F23
:10E1100020506F72747300483D48656C7000463D36
:10E1200044756D7020464C41534800453D44756D23
:10E130007020454550524F4D00423D426C696E6B18
:10E14000204C454400403D454550524F4D2074659C
:10E150007374003F3D4350552073746174730030F5
:10E160003D5A65726F206164647200504F525400D2
:10E1700045452065727220636E743D00526561648E
:10E18000696E67204545005772697474696E67202F
:10E1900045450020004D7573742062652061206C38
:10E1A000657474657200506F7274206E6F742073A2
:10E1B0007570706F72746564005768617420706F59
:10E1C00072743A006A6D702000726A6D70202000CF
:10E1D0006E6F20766563746F720056232020204195
:10E1E0004444522020206F7020636F6465202020FB
:10E1F0002020696E737472756374696F6E20616438
:10E200006472202020496E746572727570740034D7
:10E210002E372E3000312E382E30004665622020F9
:10E22000382032303133004C6F636B206675736574
:10E230002020203D200045787420667573652020DD
:10E2400020203D200048696768206675736520209E
:10E25000203D20004C6F77206675736520202020BC
:10E260003D20004350552049442020202020203DBF
:10E2700020004743432056657273696F6E203D202E
:10E2800000415652204C696243205665723D200081
:10E290005F5F4156525F415243485F5F3D200043FC
:10E2A00050552054797065202020203D2000436F78
:10E2B0006D70696C6564206F6E203D200048756844
:10E2C0003F00426F6F746C6F616465723E00417213
:10E2D0006475696E6F206578706C6F7265722073FB
:10E2E000746B3530305632206279204D4C530041EA
:10E2F000546D656761323536310011241FBECFEF92
:10E30000D1E2DEBFCDBF01E00CBF12E0A0E0B2E081
:10E31000E8E4F8EF03E00BBF02C007900D92A430D1
:10E32000B107D9F712E0A4E0B2E001C01D92A2311A
:10E33000B107E1F70F9416F30D9422FC01E20EBF32
:10E340000FEF0DBF11241FBE0D9416F30D9400F0B6
:10E350008093CE008091C80086FFFCCF8091C800DA
:10E3600080648093C800089520E030E008C0EFEC9E
:10E37000F7E03197F1F700C000002F5F3F4F2817FB
:10E380003907A9F70895CF92DF92EF92FF921F937A
:10E39000CF93DF931F92CDB7DEB76C01E12CF12C48
:10E3A000D701C601860F911DA11DB11DABBFFC0198
:10E3B0001791112329F0812F69830F94A8F16981A6
:10E3C0006F5F1111EDCF0F90DF91CF911F91FF90F3
:10E3D000EF90DF90CF9008958DE00F94A8F18AE040
:10E3E0000D94A8F10F94C3F10D94ECF1CF93DF934A
:10E3F000EC018991882319F00F94A8F1FACFDF91ED
:10E40000CF910895CF93C82F82958F70982F905DEC
:10E410009A3308F0995F892F0F94A8F1CF708C2F51
:10E42000805D8A3308F0895FCF910D94A8F10F9336
:10E430001F93CF93DF93EC018B01853691051CF47C
:10E44000633071054CF0CE0164E670E00F94C2FBBE
:10E45000862F805D0F94A8F1CB30D1051CF40230DB
:10E4600011056CF0CE0164E670E00F94C2FB6AE027
:10E4700070E00F94C2FB862F805D0F94A8F1CE014F
:10E480006AE070E00F94C2FB805DDF91CF911F9135
:10E490000F910D94A8F18091C80087FFFCCF809167
:10E4A000CE000895CF93C82F60E08BE691EE0F94D5
:10E4B000C3F18C2F0F94A8F1CF910D94ECF16F92D2
:10E4C0007F928F929F92AF92BF92CF92DF92EF9204
:10E4D000FF920F931F93CF93DF93CDB7DEB766976D
:10E4E0000FB6F894DEBF0FBECDBF782E80E1882E28
:10E4F000912C5E0181E1A80EB11C9EE2692E413093
:10E500005105E1E06E07710558F0862F4B8B5C8B4F
:10E510006D8B7E8B0F9402F27E896D895C894B89AD
:10E52000852F4B8B5C8B6D8B7E8B0F9402F24B890E
:10E53000842F0F9402F280E20F94A8F18DE20F94E1
:10E54000A8F180E20F94A8F119828E010F5F1F4F8E
:10E550004B895C896D897E896A017B01F1E07F16B8
:10E5600051F07F1620F082E0781214C011C0EBBE8B
:10E57000F60197900FC0C6014B8B5C8B6D8B7E8B29
:10E580000F940CFC982E4B895C896D897E8902C0A2
:10E59000F6019080892D4B8B5C8B6D8B7E8B0F945D
:10E5A00002F280E20F94A8F1892D80524B895C8998
:10E5B0006D897E89F8018F3510F4908201C06082E8
:10E5C000FFEFCF1ADF0AEF0AFF0A0F5F1F4F0A158E
:10E5D0001B0509F0C3CF405F5F4F6F4F7F4F198A14
:10E5E000CE0101964B8B5C8B6D8B7E8B0F94F6F17D
:10E5F0000F94ECF18A944B895C896D897E89811036
:10E600007ECF66960FB6F894DEBF0FBECDBFDF910A
:10E61000CF911F910F91FF90EF90DF90CF90BF901F
:10E62000AF909F908F907F906F900895CF93DF93DE
:10E63000CDB7DEB7CE53D1400FB6F894DEBF0FBED4
:10E64000CDBF01E20EBF0FEF0DBF94B7F894A895B0
:10E6500014BE809160008861809360001092600019
:10E66000789493FF05C0E0910402F091050219959A
:10E67000279A2F9A8091C80082608093C80080E119
:10E680008093CC0088E18093C9000000C12CD12C7C
:10E690007601A7EC8A2EABE19A2EA12CB12C2CC0CE
:10E6A00025E02A95F1F700003FEFC31AD30AE30AE9
:10E6B000F30A01E010E041E2C4164EE4D406E1049E
:10E6C000F10410F400E010E0C701B601A5019401C7
:10E6D0000F94D6FB672B682B692B19F485B18058F2
:10E6E00085B98091C80087FD03C001151105C1F2ED
:10E6F00098012F5F3F4F19F400E010E0F2CF213076
:10E70000310511F00D94A4FB0D946AFB20E030E07C
:10E7100021303105C1F41EC04F5F5F4F6F4F7F4FF7
:10E720004130A2E15A07AAE76A07710578F0CA5C8E
:10E73000DE4F28813981C653D1402F3F3F4F19F01A
:10E74000EE27FF27099440E050E0BA012091C8006D
:10E7500027FFE2CF2091CE00C75DDE4F688179812F
:10E76000C952D1406F5F7F4FC75DDE4F79836883A9
:10E77000C952D140213209F017C56A30710508F03D
:10E7800013C57FEF471A570AA3E04A16510409F050
:10E790000DC50DC081E20F94A8F1B1E0AB1AB1082C
:10E7A000C9F70F94ECF10150110919F406C005E006
:10E7B00010E0F9E1AF2EB12CEDCF10920E021092C5
:10E7C0000F02109210021092110210920A0210927F
:10E7D0000B0210920C0210920D021092060210927F
:10E7E0000702109208021092090260E08EEC92EE8D
:10E7F0000F94F2F11FEF09E060E082EC92EE0F94CB
:10E80000C3F10F944BF2982F803608F09F75903229
:10E8100080F0892FC85CDE4F9883C853D1400F9495
:10E82000A8F180E20F94A8F1C85CDE4F9881C8532C
:10E83000D140983409F4C2C1A8F4923409F457C104
:10E8400050F4903309F108F4A9C49F3399F190343E
:10E8500009F0A4C4B4C0953409F462C1963409F037
:10E860009DC488C1923509F40DC238F49C3409F472
:10E87000E5C1913509F092C4FCC1963509F426C270
:10E88000993509F08BC4E4C362E08FE591EE0F94F3
:10E89000F2F110920A0210920B0210920C021092E6
:10E8A0000D0210920E0210920F021092100210929E
:10E8B000110214C162E083E591EE0F94F2F160E081
:10E8C0008EEC92EE0F94F2F160E08EEA92EE0F94ED
:10E8D000C3F160E08BE192EE0F94F2F160E08FE91A
:10E8E00092EE0F94C3F160E08FEE92EE0F94F2F18E
:10E8F00060E080E992EE0F94C3F186E30F94A8F1F3
:10E900000F94ECF160E082E792EE0F94C3F160E0C7
:10E910008FE092EE0F94F2F160E081E892EE0F94B6
:10E92000C3F160E085E192EE0F94F2F160E083E6DE
:10E9300092EE0F94C3F18EE10F9402F288E90F94E6
:10E9400002F282E00F9402F20F94ECF160E084E5B1
:10E9500092EE0F94C3F1E0E0F0E000935700849151
:10E960000F9402F20F94ECF160E085E492EE0F94C4
:10E97000C3F1E3E0F0E00093570084910F9402F2BA
:10E980000F94ECF160E086E392EE0F94C3F1E2E0C5
:10E99000F0E00093570084910F9402F20F94ECF191
:10E9A00060E087E292EE0F94C3F1E1E0F0E00093C3
:10E9B000570084910F9402F20F94ECF11DCF62E0A6
:10E9C00085E491EE0F94F2F160E087E891EE0F9408
:10E9D000F2F10F94ECF1812C912C540114C0672DAD
:10E9E000C4010F9414FC711006C060E083E991EE3D
:10E9F0000F94C3F103C0872D0F94A8F1FFEF8F1A76
:10EA00009F0AAF0ABF0ACE5CDE4F88819981AA8136
:10EA1000BB81C253D140880D991DAA1DBB1DABBF40
:10EA2000FC0177902AE2721631F0811432E09306ED
:10EA3000A104B104A1F60F94ECF10F94ECF160E0A5
:10EA40008CE791EE0F94F2F10F94ECF1812C912C64
:10EA50005401412C512C18C0C4010F940CFC682E99
:10EA6000811106C060E083E991EE0F94C3F102C00A
:10EA70000F94A8F1671419F04FEF441A540A5FEF8E
:10EA8000851A950AA50AB50ACE5CDE4F48815981E0
:10EA90006A817B81C253D140480D591D6A1D7B1D7F
:10EAA0006BBFFA0177906AE2761631F0811472E05A
:10EAB0009706A104B10481F60F94ECF10F94ECF1E8
:10EAC00060E080E791EE0F94C3F161E070E0C20175
:10EAD0000F9417F20F94ECF10F94ECF110920602E0
:10EAE00010920702109208021092090285CE62E08D
:10EAF00089E391EE0F94F2F1279A2F9A0AC02F988A
:10EB000084E690E00F94B4F12F9A84E690E00F949D
:10EB1000B4F18091C80087FFF2CF0F944BF26CCE16
:10EB200062E08BE291EE0F94F2F140910602509177
:10EB30000702609108027091090281E00F945FF270
:10EB40008091060290910702A0910802B0910902FB
:10EB50009F5FAF4FBF4F8093060290930702A09331
:10EB60000802B093090281159041A105B10508F48E
:10EB700043CEB4CF62E08EE191EE0F94F2F140917A
:10EB80000A0250910B0260910C0270910D0280E01C
:10EB90000F945FF280910A0290910B02A0910C02F7
:10EBA000B0910D029F5FAF4FBF4F80930A029093C9
:10EBB0000B02A0930C02B0930D021ECE62E087E11F
:10EBC00091EE0F94F2F160E08FE591EE0F94F2F187
:10EBD00060E083E591EE0F94F2F160E085E491EE60
:10EBE0000F94F2F160E089E391EE0F94F2F160E0AE
:10EBF0008BE291EE0F94F2F160E08EE191EE0F94D2
:10EC0000F2F160E087E191EE0F94F2F160E086E0CE
:10EC100091EE0F94F2F160E08FEF90EE0F94F2F12D
:10EC200060E084EF90EE0F94F2F160E08BED90EEF7
:10EC30000F94F2F160E08EEC90EEB3C262E086E0F9
:10EC400091EE0F94F2F181E40F9452F282E40F946A
:10EC500052F283E40F9452F284E40F9452F285E46A
:10EC60000F9452F286E40F9452F287E40F9452F21A
:10EC7000C3CD62E08FEF90EE0F94F2F1412C512C56
:10EC800011E0D5C262E084EF90EE0F94F2F1409172
:10EC90000E0250910F02609110027091110282E0F9
:10ECA0000F945FF280910E0290910F02A0911002DA
:10ECB000B09111029F5FAF4FBF4F80930E029093B0
:10ECC0000F02A0931002B093110296CD62E08BED7B
:10ECD00090EE0F94F2F160E08FEE92EE0F94F2F16D
:10ECE00060E08AED91EE0F94F2F1C95DDE4F19827A
:10ECF0001882C752D140412C512C3201530142019C
:10ED0000B694A79497948794C95DDE4F2881398182
:10ED1000C752D1402F5F3F4FC95DDE4F39832883F3
:10ED2000C752D14062E070E0C9010F9417F280E24F
:10ED30000F94A8F18DE20F94A8F180E20F94A8F14E
:10ED400080E00F9402F2882D0F9402F280E20F947B
:10ED5000A8F18DE30F94A8F180E20F94A8F16BBEA7
:10ED6000F2012791D301C2010196A11DB11DABBFD4
:10ED7000FC013791C25CDE4F3883CE53D140B301E2
:10ED8000A2014D5F5F4F6F4F7F4FD301C2010296CB
:10ED9000A11DB11DABBFFC013791C25EDE4F3883B0
:10EDA000CE51D14084E0480E511C611C711C6BBFD8
:10EDB000FA019791C55DDE4F9883CB52D140C25C7A
:10EDC000DE4F3881CE53D140432F50E060E070E0F9
:10EDD000762F652F542F4427420F511D611D711D41
:10EDE000832FC45CDE4F2883CC53D140C85CDE4FF8
:10EDF0004883C853D140C75CDE4F5883C953D140C4
:10EE0000C65CDE4F6883CA53D140C55CDE4F788351
:10EE1000CB53D1400F9402F280E20F94A8F1C45C6E
:10EE2000DE4F2881CC53D140822F0F9402F280E232
:10EE30000F94A8F1C55DDE4F8881CB52D1400F946D
:10EE400002F280E20F94A8F1C25EDE4F8881CE51BB
:10EE5000D1400F9402F280E20F94A8F1C85CDE4F1B
:10EE60004881C853D140C75CDE4F5881C953D14057
:10EE7000C65CDE4F6881CA53D140C55CDE4F7881E5
:10EE8000CB53D140C45CDE4F2881CC53D1404F3F9F
:10EE90008FEF58076105710531F460E080ED91EE68
:10EEA0000F94C3F1C8C0DB01CA018827907CAA2750
:10EEB000BB278115904CA105B105B1F5DB01CA0155
:10EEC0009F73AA27BB27C25EDE4F88839983AA83DC
:10EED000BB83CE51D140880E991EAA1EBB1E880C42
:10EEE000991CAA1CBB1C60E089EC91EE0F94C3F145
:10EEF000C15EDE4F8881CF51D1400F9402F2C25ED5
:10EF0000DE4F8881CE51D1400F9402F280E20F94FF
:10EF1000A8F18EE30F94A8F18A2D0F9402F2892DA7
:10EF20000F9402F2882D85C04E705E7F662777278A
:10EF30004C3054496105710509F07DC0C55DDE4F57
:10EF40003881CB52D140832E912CA12CB12CBA2CDC
:10EF5000A92C982C8824C25EDE4F4881CE51D14026
:10EF6000840E911CA11CB11C422F417050E060E046
:10EF700070E0BA0155274427840E951EA61EB71EC1
:10EF8000422F407F50E060E070E0F1E1440F551FF8
:10EF9000661F771FFA95D1F7840E951EA61EB71E21
:10EFA000C25CDE4F4881CE53D140417050E060E0FA
:10EFB00070E0A5E1440F551F661F771FAA95D1F792
:10EFC000840E951EA61EB71EA5019401220F331FA5
:10EFD000441F551FC25EDE4F288339834A835B83FB
:10EFE000CE51D14060E084EC91EE0F94C3F18A2DB4
:10EFF0000F9402F2892D0F9402F2882D0F9402F2E1
:10F0000080E20F94A8F18EE30F94A8F1C05EDE4F6A
:10F010008881C052D1400F9402F2C15EDE4F8881D8
:10F02000CF51D1400F9402F2C25EDE4F8881CE51A3
:10F03000D1400F9402F20F94ECF1C95DDE4F48818C
:10F040005981C752D1404333510509F057CED4CB33
:10F0500062E08EEC90EE0F94F2F160E089EB91EEBD
:10F060000F94C3F10F944BF2982F9F75892FC85CB2
:10F07000DE4F9883C853D1400F94A8F10F94ECF160
:10F08000C85CDE4F9881C853D140892F81548A31A2
:10F0900008F080C09434F1F138F49234E9F058F576
:10F0A000913409F073C009C0963409F451C008F4D2
:10F0B00040C0973409F06AC05AC011B907C082B184
:10F0C000809582B988EC90E00F94B4F18091C800EB
:10F0D00087FFF5CF12B821CD14B907C085B180954F
:10F0E00085B988EC90E00F94B4F18091C80087FF57
:10F0F000F5CF15B812CD17B907C088B1809588B97A
:10F1000088EC90E00F94B4F18091C80087FFF5CFB0
:10F1100018B803CD1AB907C08BB180958BB988ECAC
:10F1200090E00F94B4F18091C80087FFF5CF1BB831
:10F13000F4CC1DB907C08EB180958EB988EC90E0F3
:10F140000F94B4F18091C80087FFF5CF1EB8E5CCCD
:10F1500010BB07C081B3809581BB88EC90E00F9411
:10F16000B4F18091C80087FFF5CF11BAD6CC13BB9C
:10F1700007C084B3809584BB88EC90E00F94B4F111
:10F180008091C80087FFF5CF14BAC7CC60E086EA4B
:10F1900091EE07C060E085E991EE03C060E08DEB81
:10F1A00092EE0F94F2F128CB412C512CE330E1F098
:10F1B00020F4E13061F098F406C0E53009F1C0F0C8
:10F1C000E63089F52DC02B3109F0A0CAD1C2022743
:10F1D000CA5DDE4F2883C652D140E2E097CA922F23
:10F1E00080E00227E3E092CA822B0227E4E08ECA85
:10F1F0002E3009F0C1C20227212C312CE5E086CA4D
:10F20000A1E0B0E0AC0FBD1FA20DB31D2C935FEFCA
:10F21000251A350A02272816390609F077CAAFC21F
:10F22000201721F0A9C2E73009F070CA10E08981E7
:10F23000833109F4DCC0B8F4863009F4C5C050F459
:10F24000823009F4D2C0833009F464C0813009F0FF
:10F25000D4C14AC0813109F46AC008F0A8C0803125
:10F2600009F0CBC1C2C0883109F47CC048F48531B3
:10F2700009F4BDC008F463C1863109F0BEC15FC1A5
:10F280008A3109F463C008F481C08B3109F451C09C
:10F290008D3109F0B2C18D81803339F49F8199237A
:10F2A000A9F09130A9F4E8E916C0982F907591F073
:10F2B000803519F4E0E0F0E004C0883559F4E3E06B
:10F2C000F0E099E090935700E49105C0EEE103C0AF
:10F2D000E2E001C0E0E01A821B828C831D82EE8393
:10F2E0001F8227E030E08DC11A8288E08B8381E4A1
:10F2F0008C8386E58D8382E58E8389E48F8383E525
:10F30000888780E589878FE58A8782E38B872BE072
:10F3100030E077C1EA81E059E33028F4F0E0E050D2
:10F32000FE4F808101C080E01A828B833DC011E0D6
:10F330005CC08D81882321F0813021F488E903C0ED
:10F340008EE101C082E01A828B8308C01A82E1E05C
:10F35000F0E089E080935700E491EB831C8224E085
:10F3600030E04FC18B81803549F48C81883019F4AD
:10F37000E2E0F0E005C0E0E0F0E002C0E3E0F0E051
:10F3800089E080935700E4911A82E7CF8D81836CE6
:10F3900099E0E1E0F0E0082E90935700E89507B679
:10F3A00000FCFDCF1A821B8223E030E02AC180ECF2
:10F3B0008A8322E030E0CE5DDE4F188219821A8205
:10F3C0001B82C252D1401DC18A81CB80D12CE12C3D
:10F3D000F12C7601DD24CC24F82A8D81C82A8C8179
:10F3E000D82ACC0CDD1CEE1CFF1C1A8208C16A81D5
:10F3F000C35DDE4F6883CD52D140C45DDE4F1882BD
:10F40000CC52D1409B81C45DDE4FA880B980CC52E4
:10F41000D140A92A833109F069C0CE5DDE4F288131
:10F4200039814A815B81C252D140211560EC360797
:10F4300063E046075105E8F483E0F90140935B007F
:10F4400080935700E89507B600FCFDCFCE5DDE4FF8
:10F45000288139814A815B81C252D1403F5F4F4F41
:10F460005F4FCE5DDE4F288339834A835B83C25270
:10F47000D1408B85DE011D96B701A60121E0FD017B
:10F4800031973081C15DDE4F3883CF52D140C25DAC
:10F49000DE4F1882CE52D140C25DDE4FE881F98145
:10F4A000CE52D140E82BCF010C01FA0160935B00F2
:10F4B00020935700E89511244E5F5F4F6F4F7F4FA9
:10F4C000F2E0AF1AB10819F08C911296D8CF85E00E
:10F4D000F601E0925B0080935700E89507B600FCC8
:10F4E000FDCF81E180935700E89525C09501B701D4
:10F4F000A601FE013B9641BDBB27A72F962F852F66
:10F5000082BD4F5F5F4F6F4F7F4F819180BDFA9AF1
:10F51000F99AF999FECF2150310969F7A5014150B7
:10F52000510960E070E04F5F5F4F6F4F7F4F4C0DB0
:10F530005D1D6E1D7F1D1A826A017B0160C02A81DC
:10F54000CF5CDE4F2883C153D140C05DDE4F1882AF
:10F55000C053D1409B81C05DDE4F88809980C053ED
:10F56000D140892A94012D5F3F4F1A828431C9F41A
:10F57000CE010496DE011396EBBEF601479156913B
:10F580004C93FC0150831296F2E0CF0ED11CE11C8B
:10F59000F11C42E0841A910802968114910461F7EB
:10F5A0002AC0F401B701A601B3E0AB2EB12CAC0E1A
:10F5B000BD1E41BDBB27A72F962F852F82BD4F5F54
:10F5C0005F4F6F4F7F4FF89A80B5D5018D935D01E6
:10F5D000319779F7C4010197A0E0B0E00196A11D31
:10F5E000B11DC80ED91EEA1EFB1EA3E0B0E0AC0F91
:10F5F000BD1FA80DB91D1C9204C080EC8A8322E0B7
:10F6000030E08BE1C45CDE4F2883CC53D140C85C32
:10F61000DE4F3883C853D1400F94A8F1CA5DDE4F46
:10F620008881C652D1400F94A8F1C85CDE4F388162
:10F63000C853D140B32E832F0F94A8F1C45CDE4F82
:10F640002881CC53D140A22E822F0F94A8F18EE0B6
:10F650000F94A8F105E1CA5DDE4FB881C652D140D2
:10F660000B270A250B25C45CDE4F2881CC53D140E3
:10F67000C85CDE4F3881C853D140AA24A394B12C72
:10F68000AC0EBD1EA20EB31E88248394912C8C0E4A
:10F690009D1E07C0F40171904F01872D0F94A8F1B2
:10F6A00007258A149B04B1F7802F0F94A8F1CA5D37
:10F6B000DE4F2881C652D1402F5FCA5DDE4F2883BE
:10F6C000C652D14085B1805885B920E030E0112381
:10F6D000B1F13AC0C75DDE4F19821882C952D140DC
:10F6E000412C512CCA5DDE4F1882C652D14000E039
:10F6F000212C312CCE5DDE4F188219821A821B829A
:10F70000C252D140C12CD12C760140E050E0BA0168
:10F710006BBFFA0167917691CA5CDE4F798368838B
:10F72000C653D1408EEC92EEAC0160E070E0CE5C4E
:10F73000DE4F488359836A837B83C253D14080E084
:10F7400090E0E0E00D9488F327982F9884E690E00D
:10F750000F94B4F100008091C8008D7F8093C800A1
:10F7600081E180935700E895EE27FF270994FFCFAA
:10F770000BE1E1E00D9486F3E0E00D9486F3E6E022
:10F780000D9486F397FB072E16F4009407D077FDAF
:10F7900009D00F94F8FB07FC05D03EF490958195B5
:10F7A0009F4F0895709561957F4F0895A1E21A2E9D
:10F7B000AA1BBB1BFD010DC0AA1FBB1FEE1FFF1F15
:10F7C000A217B307E407F50720F0A21BB30BE40B65
:10F7D000F50B661F771F881F991F1A9469F76095AC
:10F7E0007095809590959B01AC01BD01CF01089566
:10F7F000AA1BBB1B51E107C0AA1FBB1FA617B70757
:10F8000010F0A61BB70B881F991F5A95A9F7809572
:10F810009095BC01CD010895F999FECF92BD81BDAF
:10F82000F89A992780B50895262FF999FECF1FBA27
:10F8300092BD81BD20BD0FB6F894FA9AF99A0FBE19
:08F8400001960895F894FFCF32
:04F848000F020A00A1
:040000033000E000E9
:00000001FF
